:020000040800F2
:1000000000A00020F5570008F10C0008F30C0008D0
:10001000F50C0008F70C0008F90C000800000000BF
:10002000000000000000000000000000FB0C0008C1
:10003000FD0C000800000000FF0C0008010D000886
:10004000455800084558000845580008455800081C
:10005000455800084558000845580008455800080C
:1000600045580008455800084558000845580008FC
:1000700045580008455800084558000845580008EC
:100080004558000845580008455800080000000081
:1000900000000000000000000000000045580008BB
:1000A000090D0008190D0008290D00084558000821
:1000B00045580008000000000000000045580008F6
:1000C000455800084558000845580008455800089C
:1000D000455800084558000845580008455800088C
:1000E00045580008455800080000000000000000C6
:1000F0000000000000000000000000000000000000
:1001000000000000000000000000000000000000EF
:10011000000000000000000045580008000000003A
:10012000455800084558000845580008455800083B
:10013000455800080000000000000000000000001A
:10014000455800084558000845580008455800081B
:10015000455800084558000845580008455800080B
:100160004558000845580008000000000000000045
:1001700000000000455800080000000000000000DA
:100180004558000845580008455800080000000080
:1001900010B5054C237833B9044B13B10448AFF3C1
:1001A00000800123237010BD280100200000000002
:1001B0005461000808B5034B1BB103490348AFF372
:1001C000008008BD000000002C01002054610008E0
:1001D000034613F8012B002AFBD1181A0138704787
:1001E00001F0FF01102A2BDB10F0070F08D010F8E8
:1001F000013B013A8B422DD010F0070F42B3F6D1EC
:10020000F0B441EA012141EA014122F007047FF004
:1002100000070023F0E80256083C85EA010586EA5B
:10022000010685FA47F5A3FA87F586FA47F6A5FA97
:1002300087F68EB9EED1F0BC01F0FF0102F00702A3
:1002400032B110F8013B013A83EA010313B1F8D14E
:100250000020704701387047002D06BF354603382F
:10026000073815F0010F07D1013015F4807F02BF68
:10027000013015F4C03F0130F0BC0138704700BFB9
:1002800053B94AB9002908BF00281CBF4FF0FF31FD
:100290004FF0FF3000F06EB9ADF1080C6DE904CEFF
:1002A00000F006F8DDF804E0DDE9022304B0704751
:1002B0002DE9F047089D04468C46002B40F08380D2
:1002C0008A42174647D9B2FA82F242B1C2F12000FF
:1002D00024FA00F09140974040EA010C94404FEA24
:1002E0001748230CBCFBF8F61FFA87FE08FB16C163
:1002F00043EA014306FB0EF1994209D9FB1806F1C6
:10030000FF3080F01981994240F21681023E3B4451
:100310005B1AA4B2B3FBF8F008FB103344EA0344C1
:1003200000FB0EFEA64509D93C1900F1FF3380F011
:100330000581A64540F2028102383C4440EA06406D
:10034000A4EB0E0400261DB1D4400023C5E90043F0
:100350003146BDE8F08702B9FFDEB2FA82F2002A28
:1003600050D1CB1B4FEA174E1FFA87F80126B3FB7B
:10037000FEFC210C0EFB1C3341EA034108FB0CF38D
:100380008B4207D979180CF1FF3002D28B4200F270
:10039000E9808446C91AA3B2B1FBFEF00EFB10112E
:1003A00043EA014408FB00F8A04507D93C1900F1D5
:1003B000FF3302D2A04500F2D9801846A4EB08040E
:1003C00040EA0C40BFE78B4209D9002D00F0B18014
:1003D0000026C5E9000130463146BDE8F087B3FA92
:1003E00083F6002E4AD18B4202D3824200F2B880BB
:1003F000841A61EB030101208C46002DA8D0C5E9C9
:10040000004CA5E7C2F1200320FA03F6974001FA59
:1004100002F04FEA174ED9403043030CB1FBFEF611
:100420001FFA87F80EFB161143EA014306FB08F199
:10043000994204FA02F409D9FB1806F1FF3C80F056
:100440008D80994240F28A80023E3B445B1A81B221
:10045000B3FBFEF00EFB103341EA034100FB08F34F
:100460008B4207D9791800F1FF3C73D28B4271D9C6
:1004700002383944CB1A40EA064678E7C6F1200C28
:1004800003FA06F422FA0CF31C4320FA0CF701FAE3
:1004900006F34FEA144E21FA0CF11F433B0CB1FB5B
:1004A000FEF91FFA84F80EFB191143EA014109FB1A
:1004B00008FA8A4502FA06F200FA06F308D961182A
:1004C00009F1FF3048D28A4546D9A9F102092144F1
:1004D000A1EB0A01BFB2B1FBFEF00EFB101147EA1F
:1004E000014700FB08F8B84507D9E71900F1FF31CB
:1004F0002ED2B8452CD90238274440EA0940A7EB50
:100500000807A0FB02894F45C64649461AD317D0B3
:100510005DB1B3EB0E0267EB010707FA0CFCF2408A
:100520004CEA0202F740C5E9002700263146BDE843
:10053000F0872E4628460BE70646E9E61846FDE614
:100540004345E5D2B8EB020E69EB04010138DFE761
:100550000846D2E760468DE78146B9E7664675E70B
:1005600030464AE7ACF1020C394413E702383C4408
:1005700024E700BF704700BF30B5A5B0442200217A
:1005800013A805F0B1F900240E940F94109411945F
:1005900012943422214601A805F0A6F94FF4007008
:1005A00001F014FB022313934FF480721692402241
:1005B00017921E931F93012520950A2221922293C0
:1005C000239313A800F0D0FC0F230E9303230F9363
:1005D00010941194129404210EA801F033F801959F
:1005E000029401A801F006F925B030BD08B500F06D
:1005F000E3FBFFF7C1FF00F029F800F08DF900F0F0
:1006000051FA00F023F900F0E3F907E00B4B022266
:100610001A600B4800F0B2FA04F082FA074B01228C
:100620001A60084800F0AAFA4FF090431B6913F0D3
:10063000010FEBD0642000F0E1FBF5E77C01002026
:1006400098610008786100087047000070B58AB0B2
:10065000002405940694079408940994324BDA6CAC
:1006600042F00402DA64DA6C02F004020192019AA8
:10067000DA6C42F00102DA64DA6C02F001020292F2
:10068000029ADA6C42F00202DA64DA6C02F00202D8
:100690000392039ADA6C42F08002DA64DB6C03F0B6
:1006A00080030493049B224622214FF0904001F0E6
:1006B0007FFA4FF44043059303250695079405A957
:1006C0001A4801F0B1F948F2010305930694012696
:1006D000079605A94FF0904001F0A6F92223059353
:1006E00006960794089405A94FF0904001F09CF9F4
:1006F00041F6101305930695079405A94FF0904015
:1007000001F092F9C02305930695079405A90848BE
:1007100001F08AF9082305930695079405A9054871
:1007200001F082F90AB070BD0010024000080048D4
:1007300000040048001C004808B5074B01221A704D
:1007400004F0B8FE20B9044A137803F0FE031370D6
:10075000014B187808BD00BF0000002008B5074B0A
:1007600001221A7004F0EAFF20B9044A137803F05A
:10077000FE031370014B187808BD00BF0000002075
:1007800010B5084611461A46094B04F0DFFE10B1B9
:100790000123184610BD074C04F0D0FF0346002883
:1007A000F7D0631E0CB11C46F6E70123F1E700BF4A
:1007B00000E1F505A086010010B5084611461A466D
:1007C000094B04F03DFF10B10123184610BD074C42
:1007D00004F0B4FF03460028F7D0631E0CB11C469A
:1007E000F6E70123F1E700BF00E1F505A08601006F
:1007F00030B591B0134B1B7813F001041CD108469F
:10080000154603291BD8DFE801F0180209106846D5
:1008100004F066FE0E9B2B6020460EE0684604F056
:100820005FFE0F9B2B80204607E0684604F058FED1
:100830000F9B2B60204600E0032011B030BD042048
:10084000FBE700BF000000200020704708B50B4800
:100850000B4B036030234360042383600023C36099
:100860001F22026143618361C361036201F08EFC58
:1008700000B908BDFFF7E8FEFBE700BF0006002057
:10088000001000A0F0B589B00023039304930593F2
:100890000693079302681E4B9A4201D009B0F0BD3F
:1008A00003F1204303F500331A6D42F480721A6598
:1008B0001A6D02F480720092009ADA6C42F0010222
:1008C000DA64DA6C02F001020192019ADA6C42F009
:1008D0000202DA64DB6C03F002030293029BCC2376
:1008E00003930227049700260596032406940A25FD
:1008F000079503A94FF0904001F096F803940497F0
:1009000005960694079503A9024801F08DF8C5E7FE
:10091000001000A00004004808B51048104B036008
:100920004FF482734360002383604FF4E062C2603F
:10093000036143614FF4007282612822C261036245
:10094000436283620722C26203630823436301F0A8
:1009500051FD00B908BDFFF777FEFBE74C0600200C
:100960000030014000B589B0002303930493059340
:10097000069307930268144B9A4202D009B05DF8BF
:1009800004FB03F560431A6E42F480521A661A6E35
:1009900002F480520192019ADA6C42F00202DA64A7
:1009A000DB6C03F002030293029B382303930223C0
:1009B000049300230593032306930523079303A9B8
:1009C000024801F031F8D9E7003001400004004846
:1009D00000B589B000230493059306930793019310
:1009E000029303931548164A0260C722426083604F
:1009F000C260036163224261836101F0F9FF98B92B
:100A00004FF48053049304A90C4802F017F870B90E
:100A1000002301930293039301A9084802F07CF894
:100A200040B909B05DF804FBFFF70EFEE8E7FFF7F9
:100A30000BFEEDE7FFF708FEF3E700BFB00600206E
:100A4000002C01400268164B9A4200D0704700B556
:100A500083B003F564431A6E42F400621A661B6E9B
:100A600003F400630193019B00221146182001F05A
:100A700007F9182001F038F900221146192001F079
:100A8000FFF8192001F030F9002211461A2001F078
:100A9000F7F81A2001F028F903B05DF804FB00BF55
:100AA000002C014008B50B480B4B03604FF4E133B9
:100AB000436000238360C36003610C224261836151
:100AC000C3610362436202F080FB00B908BDFFF717
:100AD000BBFDFBE7F00600200038014000B589B0FF
:100AE0000023039304930593069307930268154B21
:100AF0009A4202D009B05DF804FB03F558431A6E20
:100B000042F480421A661A6E02F480420192019AFF
:100B1000DA6C42F00102DA64DB6C03F00103029349
:100B2000029B4FF4C06303930223049300230593B5
:100B3000032306930723079303A94FF0904000F087
:100B400073FFD7E70038014000B5B3B00A4601464D
:100B5000684604F0A1FF002802DC33B05DF804FB16
:100B60006846FFF735FB6FF07F4382B26946024863
:100B700002F08AFAF1E700BFF00600200FB400B5DA
:100B800083B004A951F8040B0191FFF7DDFF03B016
:100B90005DF804EB04B070472DE9F84F83460F462B
:100BA00092461D464848FFF7E9FF6C1C204604F0BA
:100BB0006FFE80462246002104F096FE434A5946C5
:100BC0004348FFF7DBFF9AFBF5F905FB19A9002461
:100BD0000CE004EB0B013F48FFF7D0FF10E02E23A1
:100BE00008F806306B1E9E4217D00134AAEB0903A9
:100BF000A3421EDD94FBF5F605FB1646002EE8D059
:100C0000395D3548FFF7BAFF3A5DA2F12003DBB248
:100C10005F2BE4D808F80620E4E74046FFF7AEFF74
:100C20002A48FFF7ABFF2A460021404604F05CFE4D
:100C3000DBE7B9F1000F44D1404604F031FE234C0C
:100C40002046FFF79BFF2548FFF798FF2046FFF758
:100C500095FFBDE8F88F04EB0B011E48FFF78EFFF0
:100C600019E0395D1C48FFF789FF3A5DA2F13003B6
:100C7000DBB24F2B15D808F80A206B1EB34214D0F4
:100C800001340136AE42D7DA94FBF5FA05FB1A4A75
:100C9000BAF1000FDFD04E45E3DB1148FFF76EFFDE
:100CA000EBE72E2308F80A30E7E74046FFF766FF38
:100CB0000648FFF763FF2A460021404604F014FE71
:100CC000DEE70026DEE700BFA46100081C6900081B
:100CD000BC610008D0610008DC610008E861000820
:100CE000E4610008014B53F8200070471800002011
:100CF0007047FEE7FEE7FEE7FEE770477047704784
:100D000008B500F069F808BD08B5024801F06AFDB1
:100D100008BD00BFB006002008B5024801F062FD22
:100D200008BD00BFB006002008B5024801F05AFD1A
:100D300008BD00BFB006002082B00A4B1A6E42F018
:100D400001021A661A6E02F001020092009A9A6D70
:100D500042F080529A659B6D03F080530193019B92
:100D600002B0704700100240104B1B680BB9012005
:100D7000704710B504464FF47A70B0FBF3F30C4A99
:100D80001068B0FBF3F000F0BDFF68B90F2C01D97B
:100D900001200AE0002221464FF0FF3000F070FFF2
:100DA000044B1C60002000E0012010BD6800002002
:100DB000700000206C00002010B5032000F04EFFF2
:100DC0000020FFF7D1FF10B10124204610BD0446DA
:100DD000FFF7B2FFF9E70000034A13680349096807
:100DE0000B441360704700BF7007002068000020AC
:100DF000014B1868704700BF7007002038B50446E3
:100E0000FFF7F6FF0546B4F1FF3F02D0044B1B6825
:100E10001C44FFF7EDFF401BA042FAD338BD00BFD2
:100E20006800002030B583B00446204B9B6D13F062
:100E3000805F0BD000F0C2FEB0F5007F17D0802C91
:100E40001FD82DD0702C2DD000211BE0174DAB6D7D
:100E500043F08053AB65AB6D03F080530193019B6E
:100E600000F0ACFEAB6D23F08053AB65E4E7802C63
:100E700003D9A02C03D9022104E0002102E00121C2
:100E800000E003210A4A136823F007030B431360B1
:100E9000136803F007038B4206D1002003B030BD76
:100EA0000221EFE70121EDE70120F7E70010024002
:100EB00000200240284A9368D26802F0030213F02F
:100EC0000C030AD00C2B06D0042B1FD0082B20D0EB
:100ED0000020024610E0012AF6D11F4A126812F0E3
:100EE000080F0CD11C4AD2F89420C2F303221B49EC
:100EF00051F8222043B100200C2B0DD07047164A28
:100F00001268C2F30312F2E71046F5E71448002214
:100F1000F2E714480022EFE70F4BDB6803F003030E
:100F2000022B16D0032B00D10E4A0B4BD868C0F30E
:100F300002100130D968C1F3062102FB01F2B2FBB5
:100F4000F0F2D868C0F3416001304000B2FBF0F02D
:100F5000D4E7034AE9E700BF001002407C660008BE
:100F60000024F40000127A00002800F05483F0B549
:100F700083B00446964B9D6805F00C05DE6806F0CC
:100F80000306036813F0100F5AD0E5B10C2D18D0EA
:100F9000E369002B00F0BB808D4A136843F0010326
:100FA0001360FFF725FF0746894B1B6813F0020FFC
:100FB00040F09A80FFF71CFFC01B0228F4D90320E1
:100FC00036E3012EE4D1824B1B6813F0020F03D0ED
:100FD000E369002B00F02183606A7D4B1B6813F0EE
:100FE000080F5BD07A4B1B6803F0F00398425CD883
:100FF000774B1A6842F008021A601A6822F0F00271
:10100000616A0A431A605A6822F47F42216A42EAFE
:1010100001225A60002D60D0FFF74CFF6C4B9B689B
:10102000C3F303136B4AD35C03F01F03D8406A4B2E
:1010300018606A4B1868FFF797FE002840F0F882A6
:10104000236813F0010F00F08180082D75D00C2D5E
:1010500071D06368B3F5803F00F09880B3F5A02F9E
:1010600000F09A805A4B1A6822F480321A601A688B
:1010700022F480221A606368002B00F09A80FFF748
:10108000B7FE0746524B1B6813F4003F5ED1FFF7D3
:10109000AFFEC01B6428F5D90320C9E24C4BD3F83E
:1010A00094301B0903F0F003A0E7FFF7BBFE002814
:1010B00040F0B582464B1A6842F008021A601A687E
:1010C00022F0F002616A0A431A605A6822F47F42F1
:1010D000216A42EA01225A609EE7606AFFF7A2FE97
:1010E000002899D00120A3E2394B1A6842F0080287
:1010F0001A601A6822F0F002616A0A431A605A689C
:1011000022F47F42216A42EA01225A6098E7304A7B
:10111000136823F001031360FFF76AFE07462C4BA8
:101120001B6813F0020F8BD0FFF762FEC01B022872
:10113000F5D903207CE2032E8BD1254B1B6813F4D9
:10114000003F03D06368002B00F06B82236813F02C
:10115000020F58D0042D45D00C2D41D0E368002B50
:1011600000F091801A4A136843F480731360FFF70C
:101170003FFE0646164B1B6813F4806F7AD1FFF7CB
:1011800037FE801B0228F5D9032051E2104A13686C
:1011900043F4803313606EE703F18043A3F53C33DF
:1011A0001A6842F480221A601A6842F480321A6087
:1011B00061E7FFF71DFE0746054B1B6813F4003F70
:1011C000C4D0FFF715FEC01B6428F5D903202FE219
:1011D0000010024064660008700000206C000020CF
:1011E000022EBBD1AF4B1B6813F4806F03D0E368B2
:1011F000002B00F01882AB4A536823F0FE432169AC
:1012000043EA01635360236813F0080F7DD06369DC
:10121000002B63D0A34BD3F89430A16903F01002E4
:10122000914210D003F00302022A00F0FE8113F075
:10123000010F3CD19B4AD2F8943023F01003A169EE
:101240000B43C2F89430974AD2F8943043F001032C
:10125000C2F89430FFF7CCFD0646924BD3F8943099
:1012600013F0020F51D1FFF7C3FD801B1128F4D9F1
:101270000320DDE18B4A536823F0FE43216943EAF2
:1012800001635360BFE7874A136823F480731360D8
:10129000FFF7AEFD0646834B1B6813F4806FB2D098
:1012A000FFF7A6FD801B0228F5D90320C0E17D4A87
:1012B000D2F8943023F00103C2F89430FFF798FD80
:1012C0000646784BD3F8943013F0020FB2D0FFF7F4
:1012D0008FFD801B1128F4D90320A9E1714AD2F8AF
:1012E000943023F00103C2F89430FFF781FD0646E5
:1012F0006C4BD3F8943013F0020F06D0FFF778FD53
:10130000801B1128F4D9032092E1236813F0040F05
:1013100000F08D80634B9B6D13F0805F2ED1614B8D
:101320009A6D42F080529A659B6D03F08053019351
:10133000019B01265C4B1B6813F4807F20D0A368BF
:1013400013F0010F38D05749D1F8902022F08002D5
:1013500003F080031343C1F89030A36813F0040F27
:1013600022D0D1F8902042F00402C1F89020D1F8A8
:10137000902042F00102C1F890202AE00026D9E72F
:10138000494A136843F480731360FFF731FD074641
:10139000454B1B6813F4807FD1D1FFF729FDC01B9B
:1013A0000228F5D9032043E13E4AD2F8903043F0B9
:1013B0000103C2F890300CE03A4BD3F8902022F0B1
:1013C0000102C3F89020D3F8902022F00402C3F861
:1013D0009020A3688BB1FFF70BFD0746314BD3F884
:1013E000903013F0020F21D1FFF702FDC01B41F234
:1013F00088339842F2D903201AE1FFF7F9FC074637
:10140000284BD3F8903013F0020F08D0FFF7F0FC10
:10141000C01B41F288339842F2D9032008E1214AE7
:10142000D2F8903023F08003C2F89030E6B92368F8
:1014300013F0200F3AD0A36AE3B11A4AD2F89830D9
:1014400043F00103C2F89830FFF7D2FC0646154B73
:10145000D3F8983013F0020F28D1FFF7C9FC801B96
:101460000228F4D90320E3E00E4A936D23F0805361
:101470009365DCE70B4AD2F8983023F00103C2F8F9
:101480009830FFF7B5FC0646064BD3F8983013F0BA
:10149000020F0BD0FFF7ACFC801B0228F4D903200D
:1014A000C6E000BF0010024000700040E36A002B5D
:1014B00000F0BD80022B1FD00C2D00F0BD805F4BD3
:1014C0001A6822F080721A60DA6822F00302DA6089
:1014D000DA6822F08872DA60FFF78AFC0446574B1C
:1014E0001B6813F0007F00F09480FFF781FC001B65
:1014F0000228F4D903209BE0504BDB6803F0030182
:10150000226B914216D00C2D00F094804B4A136848
:1015100023F080731360FFF76BFC0546474B1B6895
:1015200013F0007F2AD0FFF763FC401B0228F5D997
:1015300003207DE003F07002616B0139B2EB011F03
:10154000E1D103F4FE42A16BB2EB012FDBD103F436
:10155000C001E26B5208013AB1EB425FD3D103F014
:10156000C063226C5208013AB3EB426FCBD1334BCC
:101570001B6813F0007F32D0002059E02F4AD36857
:101580002F491940236B606B013843EA0013A06BAD
:1015900043EA0023E06B4008013843EA4053206CE3
:1015A0004008013843EA40630B43D360136843F0BB
:1015B00080731360D36843F08073D360FFF718FC27
:1015C00004461E4B1B6813F0007F06D1FFF710FC8A
:1015D000001B0228F5D903202AE0002028E0174B41
:1015E0001A6842F080721A60DA6842F08072DA603B
:1015F000FFF7FEFB0446114B1B6813F0007F06D17A
:10160000FFF7F6FB031B022BF5D9032010E00020A7
:101610000EE000200CE001207047012008E00120CE
:1016200006E0012004E0012002E0012000E00020AB
:1016300003B0F0BD0120FBE70120F9E700100240F4
:101640008C809FF9002800F0988070B50C46054604
:101650004E4B1B6803F007038B420BD24B4A1368B7
:1016600023F007030B431360136803F007038B4257
:1016700040F085802B6813F0010F39D06B68032B85
:1016800009D0022B26D063BB414A126812F0020F28
:1016900006D1012070E03E4A126812F0007F70D03F
:1016A0003B498A6822F0030213438B60FFF7A0FBDB
:1016B0000646374B9B6803F00C036A68B3EB820F56
:1016C00016D0FFF795FB801B41F288339842F0D982
:1016D000032051E02E4A126812F4003FE0D10120AD
:1016E0004AE02B4A126812F4806FD9D1012043E0FE
:1016F0002B6813F0020F06D0254A936823F0F003FD
:10170000A9680B439360214B1B6803F00703A342B6
:101710000AD91E4A136823F0070323431360136892
:1017200003F00703A3422ED12B6813F0040F06D059
:10173000174A936823F4E063E9680B4393602B68CE
:1017400013F0080F07D0124A936823F460532969F5
:1017500043EAC1039360FFF7ADFB0D4B9B68C3F3F6
:1017600003130C4AD35C03F01F03D8400A4B1860E4
:101770000A4B1868FFF7F8FA70BD01207047012086
:10178000FAE70120F8E70120F6E700BF0020024059
:101790000010024064660008700000206C00002009
:1017A000014B1868704700BF7000002008B5FFF7B4
:1017B000F7FF054B9B68C3F30223044AD35C03F095
:1017C0001F03D84008BD00BF001002407466000827
:1017D00008B5FFF7E5FF054B9B68C3F3C223044A36
:1017E000D35C03F01F03D84008BD00BF00100240C7
:1017F00074660008F0B583B00446036813F4003F34
:1018000069D0874B9B6D13F0805F1ED1844B9A6D1E
:1018100042F080529A659B6D03F080530193019BC7
:101820000126804A136843F480731360FFF7E0FADF
:1018300005467C4B1B6813F4807F08D1FFF7D8FA6C
:10184000401B0228F5D9032502E00026E9E7002520
:1018500045BB734BD3F8903013F4407315D0226B13
:101860009A4212D06E4AD2F8903023F44073D2F8E4
:10187000901041F48031C2F89010D2F8901021F409
:101880008031C2F89010C2F8903013F0010F10D1DF
:1018900045B9634AD2F8903023F44073216B0B436F
:1018A000C2F89030C6B15E4A936D23F080539365C1
:1018B00012E0FFF79DFA0746594BD3F8903013F02A
:1018C000020FE5D1FFF794FAC01B41F2883398422A
:1018D000F2D90325DCE70025236813F0010F08D0B7
:1018E0004F4AD2F8883023F0030361680B43C2F8F3
:1018F0008830236813F0020F08D0494AD2F88830A4
:1019000023F00C03A1680B43C2F88830236813F05E
:10191000040F08D0424AD2F8883023F03003E1683F
:101920000B43C2F88830236813F0200F08D03C4ADC
:10193000D2F8883023F4406321690B43C2F8883021
:10194000236813F4007F08D0354AD2F8883023F496
:101950004023216A0B43C2F88830236813F4806F58
:1019600008D02F4AD2F8883023F44013616A0B4321
:10197000C2F88830236813F0400F08D0284AD2F804
:10198000883023F4405361690B43C2F888302368E0
:1019900013F0800F08D0224AD2F8883023F4404355
:1019A000A1690B43C2F88830236813F4807F08D004
:1019B0001B4AD2F8883023F44033E1690B43C2F864
:1019C0008830236813F4005F0CD0154AD2F88830B1
:1019D00023F04063A16A0B43C2F88830A36AB3F1D5
:1019E000006F13D0236813F4802F0CD00C4AD2F868
:1019F000883023F04063E16A0B43C2F88830E36A21
:101A0000B3F1006F07D0284603B0F0BDD36843F4AC
:101A10008013D360E6E7D36843F48013D360F2E722
:101A20000010024000700040F0B482B0002236E0A6
:101A3000032400E00024B4403C430235584E46F8ED
:101A40002540584C2568DC4325EA03064F6817F407
:101A5000803F01D043EA0506524D2E606D6804EACE
:101A600005064F6817F4003F01D043EA05064D4DC7
:101A70006E60AD6804EA05064F6817F4801F01D058
:101A800043EA0506474DAE60ED682C404E6816F4FB
:101A9000001F01D043EA0504424BDC6001320B68B1
:101AA00033FA02F479D0012494402340F6D04D68F3
:101AB000022D01D0122D10D1D608083650F826C0BC
:101AC00002F00705AF000F25BD402CEA050C0D699B
:101AD000BD4045EA0C0540F82650D0F800C056003D
:101AE0000325B540EF432CEA050C4D6805F00305CE
:101AF000B54045EA0C0505604D6805F1FF3CBCF1B9
:101B0000010F03D9112D01D0122D10D1856807EADC
:101B1000050CCD68B54045EA0C058560456825EAA9
:101B200004044D68C5F30015954025434560C4681D
:101B300027408C68B4403C43C4604C6814F0805F1C
:101B4000ACD0194C256E45F001052566246E04F0D5
:101B500001040194019C9508AE1C114C54F82670A8
:101B600002F00304A6000F24B44027EA0407B0F1F2
:101B7000904F3FF45FAF0D4CA0420AD004F5806453
:101B8000A04208D004F58064A0423FF451AF07247E
:101B900051E701244FE702244DE702B0F0BC704743
:101BA0000000014000040140001002400004004811
:101BB0000AB181617047816270470000024B18686A
:101BC00000F4C060704700BF00700040B0F5007FB7
:101BD0000FD01F4B1B6803F4C063B3F5806F34D084
:101BE0001B4A136823F4C06343F48063136000202E
:101BF0007047174B1B6803F4C063B3F5007F20D018
:101C0000134A136823F4C06343F400731360114B49
:101C10001A68322303FB02F30F4AA2FB03239B0C37
:101C2000013300E0013B0A4A526912F4806F01D08F
:101C3000002BF7D1064B5B6913F4806F03D10020B2
:101C4000704700207047032070470020704700BF96
:101C5000007000407000002083DE1B43074AD368F9
:101C600023F4E0631B041B0C000200F4E060034358
:101C700043F0BF6343F40033D360704700ED00E0EE
:101C800030B4174BDB68C3F30223C3F10704042C01
:101C900028BF04241D1D062D18D9033B4FF0FF3526
:101CA00005FA04F421EA0401994005FA03F322EA53
:101CB0000303194300280BDB0901C9B200F160409E
:101CC00000F5614080F8001330BC70470023E5E761
:101CD00000F00F000901C9B2024B1954F4E700BF2C
:101CE00000ED00E014ED00E0002807DB00F01F022B
:101CF000400901239340024A42F82030704700BF58
:101D000000E100E00138B0F1807F0AD2064B586054
:101D1000064AF02182F823100020986007221A60FA
:101D200070470120704700BF10E000E000ED00E0C8
:101D3000F0B44B6A33B1B2F1406F03D08B6A0468E0
:101D4000013B23618C69002C6ED00E6A002E3BD0C3
:101D500003688C68DC61CC69F4B1CB6A0D6B2B43F2
:101D60004D6B2B434D6A2B434D6943EA85430D6907
:101D70002B430D6A2B43CD682B4323438C692343AC
:101D80000C682343046813436361B2F1406F19D0B8
:101D900003684A689A6115E0CB6A0D6B2B434D6B63
:101DA0002B434D6A2B434D6943EA85430D692B4311
:101DB0000D6A2B4323438C6923430C68234301683A
:101DC0001A434A61F0BC7047CD69D5B1CB6A0F6B3D
:101DD0003B434F6B3B434F6A3B434F6943EA874367
:101DE0003343CE6833432B4323430C6823430468B7
:101DF00013436361B2F1406FE4D003684A689A61AB
:101E0000E0E7CB6A0F6B3B434F6B3B434F6A3B436F
:101E10004F6943EA874333432B4323430C682343EF
:101E200001681A434A61CDE70E6A002E36D0036876
:101E30008C68DC61CD69E5B1CB6A0C6B23434C6BDC
:101E400023434C6A23434C6943EA84430C6923438C
:101E50000C6A2343CC6823432B438C6923430468D7
:101E600013436361B2F1406FACD003684A689A6172
:101E7000A8E7CC6A0B6B1C434B6B1C434B6A1C439F
:101E80004B6944EA83440B691C430B6A1C432C4393
:101E90008D692C43036822435A6193E7CF69CFB120
:101EA000CD6A0B6B1D434B6B2B434D6A2B434D6926
:101EB00043EA85433343CD682B433B4323430468C4
:101EC00013436361B2F1406F3FF47CAF03684A682B
:101ED0009A6177E7D1F824C0BCF1000F3FF472AFEC
:101EE000CB6A0D6B2B434D6B2B434CEA030C4B69B8
:101EF0004CEA83431E4347EA0603234301681A431F
:101F00004A615FE72DE9F84305460F4616469946B4
:101F1000DDF820802C68A4683C4214BF0124002412
:101F2000B44214D0B8F1FF3FF4D0FEF761FFA0EB4C
:101F30000900404502D8B8F1000FEBD1042385F821
:101F400041306B6C43F001036B64012000E0002022
:101F5000BDE8F8832DE9F04182B004460F461646ED
:101F6000FEF746FF94F84030DBB2012B3BD005462C
:101F7000012384F8403094F84130DBB2012B08D0C3
:101F80004FF00208002384F84030404602B0BDE81C
:101F9000F08100226264022384F8413000960346F7
:101FA00020212046FFF7AEFF80460028EAD100221C
:101FB00039462046FFF7BCFE7B6A1BB1012384F83B
:101FC0004130DFE700962B46012202212046FFF731
:101FD00099FF80460028D5D123680222DA600123C8
:101FE00084F84130CEE74FF00208CEE72DE9F0410A
:101FF00082B0044688461646FEF7FAFE276894F833
:102000004030DBB2012B53D00546012384F8403029
:1020100094F84130DBB2012B07D00223002284F870
:102020004020184602B0BDE8F08100226264B8F199
:10203000000F38D0122384F841303B690133E3624A
:102040003B690133A362C4F824807B6923F04063B9
:102050007B611346E26A9AB100962B460122042165
:102060002046FFF74FFF034650B9626A127887F89F
:102070002020616A01316162E16A0139E162E9E7C8
:102080001BB1012284F84120C8E700962B460122AB
:1020900002212046FFF736FF03460028F1D12268CF
:1020A0000221D160EDE7626C42F008026264B5E79C
:1020B0000223B6E72DE9F04182B004468846164671
:1020C000FEF796FE2768BA6994F84030DBB2012B20
:1020D00057D00546012384F8403094F84130DBB2F4
:1020E000012B07D00223002284F84020184602B0BA
:1020F000BDE8F08100216164B8F1000F3CD02223DB
:1021000084F841303B690133A3633B690133636366
:10211000C4F830807B6923F0406343F080637B61C7
:1021200023689A610B46A26B9AB100962B46012256
:1021300006212046FFF7E6FE034650B9226B97F8CA
:1021400020101170216B01312163A16B0139A16352
:10215000E9E71BB1012284F84120C4E700962B4631
:10216000012202212046FFF7CDFE03460028F1D1CF
:1021700022680221D160EDE7626C42F008026264DD
:10218000B1E70223B2E781647047000030B583B045
:102190000446FEF72DFE002C54D0054694F840303E
:1021A000DBB2012B50D0012384F8403094F8413049
:1021B000002B3CD021680B6823F47063A268013ABD
:1021C00043EA02230B60A36C00932B4600222021DC
:1021D0002046FFF797FE28BB21680B6823F07F435A
:1021E00023F0D0036568E26842EA0562E5692A43A4
:1021F000256A2A4313430B6021684A68134B134036
:102200002569626942EA0542A5692A4313434B6086
:102210002268136843F00103136000236364012301
:1022200084F84130002384F8403003B030BD84F896
:1022300040302046FEF726FB41F288312046FFF76A
:10224000A2FFB7E70120F0E70220EEE7FEF8E0FF8B
:102250002DE9F0410646884617461D463468A468B5
:1022600038EA04030CBF01240024BC4237D0B5F186
:10227000FF3FF3D0FEF7BCFD069BC01AA84201D277
:10228000002DEBD13268536823F0E003536073688C
:10229000B3F5827F0BD0B36AB3F5005F14D001238E
:1022A00086F85D30002386F85C30032018E0B368C0
:1022B000B3F5004F02D0B3F5806FECD132681368EC
:1022C00023F040031360E6E73268136823F40053F9
:1022D00013603268136843F400531360DFE7002093
:1022E000BDE8F0812DE9F84381460E461746984631
:1022F00002E0B8F1FF3F0CD1D9F80050AC6834408F
:10230000BC4243D0B6F5C06FF3D1002FF1D12B7B87
:10231000EFE7FEF76DFD089BC01A404502D2B8F109
:10232000000FE9D1D9F80020536823F0E00353608F
:10233000D9F80430B3F5827F0CD0D9F82830B3F542
:10234000005F16D0012389F85D30002389F85C30E6
:1023500003201CE0D9F80830B3F5004F02D0B3F5E4
:10236000806FEAD1D9F80020136823F0400313608E
:10237000E3E7D9F80020136823F400531360D9F879
:102380000020136843F400531360DBE70020BDE82E
:10239000F88370B582B004460D46164600920B468F
:1023A00000224FF4C051FFF79DFFB0B900962B46B5
:1023B000002280212046FFF74BFFA8B900962B464C
:1023C00000224FF4C0612046FFF78CFF50B1236E0E
:1023D00043F020032366032004E0236E43F0200330
:1023E0002366032002B070BD236E43F020032366F2
:1023F0000320F7E7002853D010B50446002383627A
:1024000090F85D30002B40D0022384F85D302268C4
:10241000136823F040031360E368B3F5E06F39D924
:102420000022B3F5706F04D0B3F5E06F01D0002146
:10243000A162216B21B9B3F5E06F2ED9022323638A
:102440006368A1680B4321690B4361690B43A16970
:1024500001F400710B43E1690B43216A0B43A06A4D
:10246000216803430B60638B03F00403616A0B4331
:10247000616B0B43E1680B43216813434B60002001
:102480002066012384F85D3010BD80F85C30FEF7D3
:1024900069FAB9E74FF48052C3E701232363CFE71A
:1024A000012070472DE9F8431F46089D90F85C30E5
:1024B000012B00F06481044688469146012380F890
:1024C0005C30FEF795FC064694F85D30DBB262683E
:1024D000012B0AD0B2F5827F40F03881A268002A31
:1024E00040F03D81042B40F03C81B8F1000F00F03A
:1024F0003A81B9F1000F00F03881002F00F03781E8
:1025000094F85D30DBB2042B02D0052384F85D30F3
:1025100000232366C4F84090A4F84670A4F84470E1
:10252000C4F83880E787A787E3642365E368B3F5D9
:10253000E06F01D8012F23D92268536823F4805318
:10254000536023681A6812F0400F03D11A6842F0F2
:1025500040021A60E368B3F5E06F58D963680BB1C5
:10256000012F0BD1A26B23681288DA60A36B0233B0
:10257000A363E38F9BB2013B9BB2E387012725E076
:102580002268536843F480535360DAE723689A68FB
:1025900012F0010F11D0B4F8462092B26AB1DA6895
:1025A000236C1A80236C02332364B4F846309BB248
:1025B000013B9BB2A4F846300127FEF719FC831BB0
:1025C000AB4203D3B5F1FF3F40F0D380E38F9BB222
:1025D0002BB9B4F846309BB2002B00F0AD802368D5
:1025E0009A6812F0020FD1D0E28F92B2002ACDD0B9
:1025F000002FCBD0A26B1288DA60A36B0233A363E7
:10260000E38F9BB2013B9BB2E3870027BEE7636881
:102610000BB1012F0FD1E38F9BB2012B0DD9A26B10
:1026200023681288DA60A36B0233A363E38F9BB243
:10263000023B9BB2E387012749E0A26B2368127833
:102640001A73A36B0133A363E38F9BB2013B9BB26D
:10265000E387F0E7E28F92B2012A0CD9A26B1288CD
:10266000DA60A36B0233A363E38F9BB2023B9BB29E
:10267000E38700273DE0A26B12781A73A36B013346
:10268000A363E38F9BB2013B9BB2E387002730E05B
:102690002268536843F48053536001270DE0226C95
:1026A0001B7B1370236C01332364B4F846309BB258
:1026B000013B9BB2A4F846300127FEF799FB801B33
:1026C000A84202D3B5F1FF3F55D1002D55D0E38F7D
:1026D0009BB223B9B4F846309BB2002B2CD02368B0
:1026E0009A6812F0020F04D0E28F92B20AB1002F62
:1026F000B0D123689A6812F0010FDED0B4F84620FA
:1027000092B2002AD9D0B4F8462092B2012AC6D992
:10271000DA68236C1A80236C02332364B4F84630E1
:102720009BB2023B9BB2A4F84630B4F846309BB251
:10273000012BADD90127C0E7324629462046FFF7D5
:1027400028FE20B120232366012000E0022001237F
:1027500084F85D30002384F85C30BDE8F883022003
:10276000F5E70220F3E70120F1E70120EFE7012080
:10277000EDE70320EBE70320E9E70320E7E702208A
:10278000EBE730B4036A056A25F001050562846948
:1027900024F0F00444EA021423F00A030B4384619A
:1027A000036230BC704730B4056A25F0100505623D
:1027B0008469036A24F4704444EA023423F0A003D9
:1027C00043EA01138461036230BC7047836823F0DD
:1027D00070030B4343F007038360704770477047F3
:1027E0007047704710B5044603681A6912F0020F6B
:1027F00011D0DA6812F0020F0DD06FF002021A61E8
:102800000123037703689B6913F0030F79D0FFF767
:10281000E6FF0023237723681A6912F0040F12D011
:10282000DA6812F0040F0ED06FF004021A6102236E
:10283000237723689B6913F4407F68D02046FFF715
:10284000CEFF0023237723681A6912F0080F12D0F5
:10285000DA6812F0080F0ED06FF008021A61042334
:1028600023772368DB6913F0030F57D02046FFF767
:10287000B6FF0023237723681A6912F0100F12D0D5
:10288000DA6812F0100F0ED06FF010021A610823F0
:1028900023772368DB6913F4407F46D02046FFF797
:1028A0009EFF0023237723681A6912F0010F03D0DB
:1028B000DA6812F0010F3FD123681A6912F0800F15
:1028C00003D0DA6812F0800F3DD123681A6912F440
:1028D000807F03D0DA6812F0800F3BD123681A6939
:1028E00012F0400F03D0DA6812F0400F39D123689C
:1028F0001A6912F0200F03D0DA6812F0200F37D1D6
:1029000010BDFFF76BFF2046FFF76AFF81E7204607
:10291000FFF764FF2046FFF763FF92E72046FFF7CB
:102920005DFF2046FFF75CFFA3E72046FFF756FF59
:102930002046FFF755FFB4E76FF001021A61204609
:1029400002F032F9B8E76FF080021A61204600F019
:102950001CF9BAE76FF480721A61204600F016F98C
:10296000BCE76FF040021A612046FFF73AFFBEE76E
:102970006FF020021A61204600F006F9C0E700005F
:1029800003681A4A904202D0B0F1804F03D123F07D
:1029900070034A681343154A90420AD0B0F1804F41
:1029A00007D002F5A052904203D002F58062904217
:1029B00003D123F44073CA68134323F080034A69A8
:1029C000134303608B68C3620B688362074B9842B2
:1029D00007D003F5A053984203D003F580639842D3
:1029E00001D10B690363012343617047002C01404F
:1029F000B0B110B5044690F83D3063B1022384F8BD
:102A00003D30214651F8040BFFF7BAFF012384F84B
:102A10003D30002010BD80F83C30FEF713F8EDE7A4
:102A20000120704710B4846824F47F4442EA0322F2
:102A30000A43224382605DF8044B704790F83C30B3
:102A4000012B64D010B50446012380F83C300223EA
:102A500080F83D30026890682E4B034093600B680D
:102A6000602B40D022D8402B47D00BD9502B0ED111
:102A7000CA6849682068FFF784FE50212068FFF784
:102A8000A5FE04E0202B0CD008D9302B09D001235F
:102A900084F83D30002084F83C0010BD0BB1102BB1
:102AA000F5D119462068FFF791FEF0E7702B0ED0A4
:102AB000B3F5005FEBD1CB684A6889682068FFF7FF
:102AC000B1FF2268936843F480439360DFE7CB68EB
:102AD0004A6889682068FFF7A5FF2268936843F079
:102AE00077039360D3E7CA6849682068FFF75BFE05
:102AF00060212068FFF76AFEC9E7CA684968206854
:102B0000FFF73FFE40212068FFF760FEBFE702208D
:102B1000704700BF8800FEFF90F83C30012B2FD09B
:102B200030B4012380F83C30022380F83D30026845
:102B300053689568134CA2421DD023F070030C68B3
:102B40002343536003680F4A934206D0B3F1804F8A
:102B500003D002F5A052934204D125F080058A6883
:102B600015439D60012380F83D30002380F83C3000
:102B7000184630BC704723F470034C682343DCE7ED
:102B800002207047002C01407047704770470000DA
:102B9000F8B5044601688368026913434269134328
:102BA000C269134308689D4A024013430B602268C0
:102BB000536823F44053E1680B435360A1692268D2
:102BC000974B9A4201D0236A1943936823F43063E8
:102BD0000B4393602368934A93421FD0924A9342D7
:102BE00030D0924A934246D08D4A934255D0102518
:102BF0008B4A93427AD0E369B3F5004F00F0E0804E
:102C0000082D00F27A81DFE815F03B0150015A01EE
:102C1000780165017801780178016F0102F5584269
:102C2000D2F8882002F00302032A09D8DFE802F074
:102C300002044A060125DBE70425D9E70825D7E782
:102C40001025D5E702F5E632D2F8882002F00C0212
:102C50000C2A0ED8DFE802F0070D0D0D090D0D0D41
:102C6000380D0D0D0B000025C2E70425C0E708252F
:102C7000BEE71025BCE702F5E432D2F8882002F066
:102C80003002202A22D004D812B3102A22D10425DF
:102C9000AEE7302A20D10825AAE702F5C832D2F8DB
:102CA000882002F44062B2F5006F17D005D8BAB19F
:102CB000B2F5806F16D104259AE7B2F5406F13D1B3
:102CC000082595E7022593E7022591E702258FE77E
:102CD00000258DE710258BE7102589E7022587E77A
:102CE000002585E7102583E7102581E7082D00F2F0
:102CF0000781DFE815F00C0005012700050124001D
:102D000005010501050109004FF4004004E0FEF74C
:102D10004DFD002800F0F680626802EB420383421A
:102D200000F2F280B0EB023F00F2F080082D44D8B0
:102D3000DFE805F00A431F432A4343433800FEF708
:102D4000B9F8E6E73A48E7E7FEF730FD0023070E5B
:102D5000060262685008301847F10001FDF790FA4A
:102D6000A0F54072334B9A4200F2D2802368D860BB
:102D700096E0560800252B462F480021801941F186
:102D80000001FDF77DFAEBE7FEF794F80025070E4A
:102D90000602626850082B46301847F10001FDF723
:102DA0006FFADDE7500800252B4610F500002CBF18
:102DB00001210021FDF764FAD2E701250020CFE7C9
:102DC000082D5AD8DFE805F0051E3A5945595959DA
:102DD0005000FEF7EBFC6268530803EB4003B3FBC3
:102DE000F2F39BB2A3F110014FF6EF72914200F2A1
:102DF00091809AB222F00F02C3F342031343226878
:102E0000D3604DE0FEF7E4FC6268530803EB400337
:102E1000B3FBF2F39BB20025E4E700BFF369FFEFD9
:102E2000008000400038014000440040004800405D
:102E30000024F400FFFC0F00000024F46268530833
:102E400003F1F47303F59043B3FBF2F39BB2002557
:102E5000C8E7FEF72FF86268530803EB4003B3FBA3
:102E6000F2F39BB20025BDE76268530803F5803397
:102E7000B3FBF2F39BB20025B4E701250023B1E7D1
:102E8000FEF794FC626800EB5203B3FBF2F39BB2D3
:102E9000A3F110014FF6EF7291423DD82268D36042
:102EA0000023236663662846F8BDFEF791FC62683E
:102EB00000EB5203B3FBF2F39BB20025E8E7626834
:102EC000530803F5740303F51053B3FBF2F39BB2FD
:102ED0000025DDE7FDF7EEFF626800EB5203B3FB70
:102EE000F2F39BB20025D3E76268530803F5004371
:102EF000B3FBF2F39BB20025CAE701250023C7E725
:102F00000125CDE70025CBE70125C9E70125C7E766
:102F10000125C5E70125C3E70125C1E7436A13F091
:102F2000010F06D00268536823F40033816A0B4313
:102F30005360436A13F0020F06D00268536823F40B
:102F40008033C16A0B435360436A13F0040F06D009
:102F50000268536823F48023016B0B435360436A78
:102F600013F0080F06D00268536823F40043416B46
:102F70000B435360436A13F0100F06D00268936846
:102F800023F48053816B0B439360436A13F0200F4B
:102F900006D00268936823F40053C16B0B4393601F
:102FA000436A13F0400F0AD00268536823F4801379
:102FB000016C0B435360036CB3F5801F0BD0436A65
:102FC00013F0800F06D00268536823F40023816C4D
:102FD0000B43536070470268536823F4C003416C8D
:102FE0000B435360EBE72DE9F84305460F461646C1
:102FF0009946DDF820802C68E46937EA04030CBFA9
:1030000001240024B4423CD1B8F1FF3FF3D0FDF7D6
:10301000EFFEA0EB0900404521D8B8F1000F1ED00B
:103020002B681A6812F0040FE5D0DA6912F4006F09
:10303000E1D04FF400621A622A68136823F4D07357
:1030400013602A68936823F00103936020236B6761
:10305000AB67EB67002385F87030032012E02A6825
:10306000136823F4D07313602A68936823F0010374
:10307000936020236B67AB67002385F870300320D3
:1030800000E00020BDE8F8832DE9F04182B01E4643
:10309000436F202B55D104460D469046002954D04D
:1030A000002A54D090F87030012B52D0012380F8C0
:1030B00070300023C36721234367FDF799FE07465D
:1030C000A4F85080A4F85280A368B3F5805F05D0BF
:1030D0004FF00008002384F8703014E0236913B126
:1030E0004FF00008F6E7A8460025F3E738F8023B62
:1030F0002268C3F308031385B4F8522092B2013A50
:1031000092B2A4F85220B4F852309BB273B1009638
:103110003B46002280212046FFF765FFD8B9002DED
:10312000E4D0236815F8012B1A85E5E700963B46A5
:10313000002240212046FFF756FF70B92023636725
:1031400000E0022002B0BDE8F0810120FAE7012092
:10315000F8E70220F6E70320F4E70320F2E730B5B2
:1031600083B004460023C367FDF742FE054623688B
:103170001B6813F0080F0CD123681B6813F0040FB1
:1031800015D120236367A367002084F8700003B083
:1031900030BD6FF07E430093034600224FF40011D0
:1031A0002046FFF720FF0028E6D00320EFE76FF06E
:1031B0007E4300932B4600224FF480012046FFF708
:1031C00012FF0028DDD00320E1E768B310B5044604
:1031D000436F03B3242363672268136823F001035A
:1031E00013602046FFF7D4FC012813D0636ABBB9F3
:1031F0002268536823F4904353602268936823F055
:103200002A0393602268136843F001031360204689
:10321000FFF7A5FF10BD80F87030FDF75FFCD9E720
:103220002046FFF77BFEE3E7012070470F49D1F806
:10323000883043F47003C1F888300D4B1A6842F0AF
:1032400001021A60002098601A6822F0A85222F445
:1032500010221A604FF48052DA601A6822F4802239
:103260001A6098614FF000638B60704700ED00E0DA
:103270000010024008B5044B03EB8002526852680C
:103280000344187A904708BD6C01002008B5084B2C
:103290001B5C53B9064B01221A5403EB800252689F
:1032A00012681844007A904708BD0020FCE700BF70
:1032B0006C01002038B5044C04EB80056D68AD68E6
:1032C0000444207AA84738BD6C01002038B5044C6E
:1032D00004EB80056D68ED680444207AA84738BD8A
:1032E0006C01002010B5044B03EB80046468246972
:1032F0000344187AA04710BD6C0100204278007882
:1033000040EA02207047C278837843EA0222437879
:1033100043EA0223007840EA032070470170090A5B
:10332000417070470170C1F307234370C1F3074335
:103330008370090EC170704710B414462AB10A7820
:10334000013102700130013CF9D15DF8044B704746
:1033500001700130013AFBD1704710B40446207867
:1033600001340B780131C01A013A01D00028F6D09F
:103370005DF8044B70470346187818B1884201D0B5
:103380000133F9E77047000030B400252B4601E017
:1033900001250133012B15D81A01174CA258002A18
:1033A000F6D00468A242F4D1134A02EB0312546827
:1033B00082689442EDD1104A02EB0312946842698C
:1033C0009442E6D1022B0AD0A1B90B4A02EB0313B7
:1033D0009B89B3F5807F0BD0002030BC70472DB99E
:1033E000022901D01220F8E70020F6E70020F4E7D8
:1033F0001020F2E71020F0E748010020002000E054
:103400000130012804D80301034AD358002BF7D117
:10341000023818BF012070474801002070B4002313
:1034200000E00133012B13D81A01244CA458026880
:103430009442F6D1214A02EB031254688268944206
:10344000EFD11E4A02EB0312946842699442E8D11C
:10345000022B13D021B1194A02EB0312928952BBFD
:1034600021BB164A02EB03129189013189B2134A3A
:1034700002EB03129181581C70BC70470023012B92
:1034800005D81A010D4CA2580AB10133F7E7022BF7
:103490000FD00668094D1C0105EB03122E518468FC
:1034A00054604069906000209081D3E74FF48071B0
:1034B000DDE70020E0E70020DEE700BF4801002054
:1034C0000138012815D80D4B03EB00139B89B3F588
:1034D000807F03D01BB1013B9BB200E00023074A71
:1034E00002EB0012938133B903010020034AD0504C
:1034F0007047022070470020704700BF480100203D
:10350000002303E05DF8044B70470133012B11D811
:103510001A0109498A588242F7D110B41A010024CD
:103520008C500133012BEDD81A0103498A5882428D
:10353000F7D1F3E7704700BF480100200239436923
:10354000023B8B4204D94389806A01FB0300704728
:10355000002070470268C36A0433490A5289B1FBEC
:10356000F2F1186830B1814202D3091A0833F8E742
:1035700058680844704770B506460D4601F11A00B8
:10358000FFF7BCFE3378032B00D070BD044605F175
:103590001400FFF7B3FE44EA0040F6E770B50646B4
:1035A0000C46154691B204F11A00FFF7B7FE3378C6
:1035B000032B00D070BD290C04F11400FFF7AEFE00
:1035C000F8E700002DE9F84F81468A460F6800F1C0
:1035D000240B0B2220215846FFF7BAFE0026334663
:1035E0004FF008082CE001357B5D2F2BFBD05C2BC6
:1035F000F9D03D44CAF80050002E43D099F8243049
:10360000E52B35D0202C37D8042389F82F30002023
:1036100028E008264FF00B0811E014F0800F23D1AA
:1036200021461948FFF7A7FE50BBA4F16103DBB2A6
:10363000192B01D8203CE4B20BF8064001362B468A
:103640005D1CFC5C202CD4D92F2CCDD05C2CCBD095
:103650002E2C01D0B045E0D8B8F10B0F0ED02E2C97
:10366000D7D00620BDE8F88F803C084B1C5DD7E71B
:10367000052389F82430C5E70023C6E70620F1E7D3
:103680000620EFE70620EDE7AC660008BC66000800
:103690000146006808B1024603E04FF0FF30704772
:1036A00001321378202B01D93A2BF9D13A2B01D0D2
:1036B0000020704710B4034613F8010B3038092876
:1036C00008D89A4202D04FF0FF3005E038B90132F5
:1036D0000A6001E04FF0FF305DF8044B70474FF097
:1036E000FF30F9E738B50D46044698B103689BB141
:1036F0001A78A2B18188DA88914203D00920002487
:103700002C6038BD5878FFF7B5FD10F0010009D1E5
:103710002468F5E70920F3E71C460920F0E70920B3
:103720000024EDE709200024EAE72DE9F041C578FF
:1037300015B92846BDE8F0810446C76A00F1300893
:1037400001233A4641464078FFF7C0FD054698B947
:103750000023E370236AFB1AA2699342E9D2A67898
:10376000012EE6D9A3691F4401233A4641466078F9
:10377000FFF7ACFD013EF3E70125DAE770B5C36A58
:103780008B4202D10026304670BD04460D46FFF73D
:10379000CCFF06460028F6D101232A4604F1300169
:1037A0006078FFF787FD10B101264FF0FF35E56225
:1037B000E9E7000038B504460023C3704FF0FF333B
:1037C000C362FFF7DBFF30BB054604F22E20FFF794
:1037D00095FD4AF6552398421FD194F83030E92BD5
:1037E00007D0236B03F0FF130D4A934201D002254B
:1037F00014E004F16600FFF786FD20F07F40094BDE
:1038000098420BD004F18200FFF77DFD064B9842F1
:1038100004D0022502E0042500E00325284638BD37
:10382000EB00900046415400464154332DE9F04FDF
:1038300085B00D46164600230B60FFF729FF071ED3
:10384000C0F24481B54B53F82740002C00F043816F
:103850002C6006F0FE06237873B16078FFF70AFD4E
:1038600010F0010508D1002E00F0318110F0040F96
:1038700000F02D810A252AE100232370F8B2607040
:10388000FFF704FD10F0010540F027811EB110F094
:10389000040F40F0248100212046FFF78BFF02280F
:1038A00000F0B6800027042800F01B81012800F2F8
:1038B0001A8104F13B00FFF721FDB0F5007F40F0D5
:1038C000148104F14600FFF719FD064620B904F102
:1038D0005400FFF718FD0646A66194F84020A27038
:1038E000531EDBB2012B00F2028106FB02F894F8B2
:1038F0003D90A4F80A90B9F1000F00F0FA8009F1A8
:10390000FF3319EA030F40F0F68004F14100FFF79E
:10391000F5FC8246208110F00F0F40F0EE8004F19C
:103920004300FFF7EBFC834620B904F15000FFF79A
:10393000EAFC834604F13E00FFF7E0FC0246002863
:1039400000F0DD8000EB080303EB1A139B45C0F089
:10395000D880ABEB030BBBFBF9F1CB45C0F0D380B8
:103960004FF6F57081426BD94FF0030B40F6F570BE
:10397000814201D84FF0010B01F10209C4F8149003
:10398000E7613A4422623B44A362BBF1030F5AD081
:10399000BAF1000F00F0BD8042446262BBF1020F39
:1039A00062D009EB490309F0010909EB530909F257
:1039B000FF19B6EB592FC0F0AE804FF0FF332361F3
:1039C000E36080232371BBF1030F50D084F800B073
:1039D000534A138801339BB21380E3802046FFF7DC
:1039E0008FFD74E0002004AB03EB860343F8100C5A
:1039F0000136032E0ED804F13000330103F5DF73D6
:103A000018440379002BEDD00830FFF77CFCEAE77F
:103A10000026EEE700260AE039462046FFF7CAFEF8
:103A200001287FF640AF0136032E3FF63CAF04ABD2
:103A300003EB860353F8107C002FEDD10320F2E74F
:103A40004FF0020B92E704F15A00FFF757FC0028F1
:103A50005BD1BAF1000F5AD104F15C00FFF753FCBF
:103A600060624FEA8909A2E74FEA49099FE704F13A
:103A70006000FFF743FC0128A8D1791C2046FFF71E
:103A80007DFE0028A2D10023237104F22E20FFF72F
:103A900035FC4AF65523984298D104F13000FFF7DF
:103AA00032FC204B984291D104F50570FFF72BFCB6
:103AB0001D4B98428AD104F50670FFF724FC206163
:103AC00004F50770FFF71FFCE0607FE70B25284631
:103AD00005B0BDE8F08F0C25F9E70325F7E70A25C7
:103AE000F5E70125F3E70D25F1E70D25EFE70D25B6
:103AF000EDE70D25EBE70D25E9E70D25E7E70D25BA
:103B0000E5E70D25E3E70D25E1E70D25DFE70D25C9
:103B1000DDE70D25DBE70D25D9E700BF44010020D7
:103B20006801002052526141727241612DE9F047F3
:103B300001297ED907460C46164643698B427AD93D
:103B40000378022B45D0032B57D0012B03D002253D
:103B50002846BDE8F08701EB5108016A01EB5821C6
:103B6000FFF70CFE05460028F2D107F1300A08F1F4
:103B70000109C8F3080814F001041FD01AF908302D
:103B800003F00F03320102F47F621343DBB20AF841
:103B900008300123FB70396A01EB59213846FFF7E1
:103BA000EDFD05460028D3D1C9F3080944B1C6F399
:103BB00007120AF809200123FB70C9E7F3B2E6E710
:103BC0001AF9092022F00F02C6F303263243D2B2BB
:103BD000EFE7016A01EB1421FFF7D0FD054600284D
:103BE000B6D107F13000640004F4FF74B1B2204490
:103BF000FFF794FB0123FB70AAE7016A01EBD411E4
:103C0000FFF7BCFD05460028A2D126F0704607F15B
:103C10003003A40004F4FE741C442046FFF773FB39
:103C200000F0704131432046FFF77CFB0123FB701D
:103C30008EE702258CE702258AE7F8B50568012999
:103C400056D90C466B698B4254D92B78022B2DD058
:103C5000032B3BD0012B01D001204AE001EB5106A0
:103C6000296A01EB56212846FFF788FD10B14FF075
:103C7000FF303EE0771CC6F308062E4496F830600D
:103C8000296A01EB57212846FFF778FDA0BBC7F34F
:103C900008073D4495F8300046EA002014F0010F73
:103CA00001D0000925E0C0F30B0022E0296A01EBF6
:103CB00014212846FFF762FD08BB05F130006400BF
:103CC00004F4FF742044FFF719FB12E0296A01EBAA
:103CD000D4112846FFF752FDA0B905F13000A40029
:103CE00004F4FE742044FFF70EFB20F0704000E067
:103CF0000120F8BD0120FCE74FF0FF30F9E74FF05D
:103D0000FF30F6E74FF0FF30F3E72DE9F041D0F850
:103D10000080B1F5001F42D206460F4611F01F0F7A
:103D20003FD1416184682CB998F80030022B01D949
:103D3000D8F82440B4B9B8F80830B3EB571F32D9DB
:103D4000D8F82430F361B461F36993B303EB5723DC
:103D5000F36108F13003C7F3080119443162002010
:103D6000BDE8F081B8F80A506D0200E07F1BAF4259
:103D70000FD321463046FFF760FF0446B0F1FF3F06
:103D800013D0012813D9D8F814308342EED802207A
:103D9000E6E721464046FFF7D1FBF061D3E702207A
:103DA000DEE70220DCE70220DAE70120D8E7022084
:103DB000D6E70220D4E72DE9F041054606680F4614
:103DC00051B9D6F80C80B8F1000F12D07369434591
:103DD00011D84FF001080EE0FFF72FFF034601282E
:103DE00047D9B0F1FF3F49D07269824246D8B84600
:103DF00001E04FF0010844460CE021462846FFF759
:103E00001CFF034678B1012838D0B0F1FF3F35D010
:103E1000444532D001347369A342EED8B8F1010FA2
:103E200029D90224E9E74FF0FF3221463046FFF757
:103E30007DFE034600B977B9A3B9F46032697369AE
:103E4000023B9A4201D8013A3261337943F00103CF
:103E50003371234612E0224639463046FFF766FEAC
:103E60000346E9E7012B01D0012307E04FF0FF33C0
:103E700004E0012302E0002300E000231846BDE82F
:103E8000F081F8B50C46056801292ED90646114681
:103E90006B69A3422BD94AB14FF0FF322846FFF796
:103EA00045FE074610B123E0A24221D9274621460C
:103EB0003046FFF7C2FE0446E0B101281CD0B0F145
:103EC000FF3F1BD0002239462846FFF72FFE07464A
:103ED00070B92B696A69911E8B42E5D201332B615F
:103EE0002B7943F001032B71DEE7022700E0022764
:103EF0003846F8BD0027FBE70227F9E70127F7E777
:103F00002DE9F04706684569C369002B6CD004466B
:103F100088462035B5F5001F68D2C5F308073FB9BC
:103F20000133C361816979B93389B3EB551F07D96F
:103F3000656106F130033B4423620020BDE8F08751
:103F40000023C3610420F9E77389013B13EA552973
:103F5000EED1FFF772FE8246012849D9B0F1FF3F4A
:103F600048D07369834237D8B8F1000F11D0A169E6
:103F70002046FFF720FF824600283DD001283DD093
:103F8000B0F1FF3F3CD03046FFF7CFFB28B1012016
:103F9000D4E70023E3610420D0E74FF4007200214E
:103FA00006F13000FFF7D4F951463046FFF7C6FA64
:103FB000F062738999450BD20123F3703046FFF705
:103FC000B4FBF8B909F10109F36A0133F362F0E7D0
:103FD000F36AA3EB0903F362C4F818A05146304614
:103FE000FFF7ACFAE061A3E70420A7E70420A5E708
:103FF0000220A3E70120A1E707209FE702209DE719
:1040000001209BE7012099E770B50446066800216E
:10401000FFF77BFE054640B1284670BD00212046D3
:10402000FFF76EFF05460028F6D1E1693046FFF73D
:10403000A5FB05460028EFD1206A03787BB1C37A3F
:1040400003F03F03A371C37A13F0080FE6D10B22EC
:1040500004F12401FFF781F90028DFD1DCE7042512
:10406000DAE730B583B004460191056801E0013319
:104070000193019B1A782F2AF9D05C2AF7D00022ED
:10408000A2601B781F2B1BD8802384F82F30114689
:104090002046FFF73AFE0346184603B030BD042819
:1040A000FAD112F0040FF7D10523F5E705F130013D
:1040B0006369C3F3080319442846FFF75CFAA0605C
:1040C00001A92046FFF77EFA03460028E4D12046E6
:1040D000FFF79AFF94F82F2003460028DFD112F053
:1040E000040FD9D1A37913F0100FDFD10523D3E743
:1040F000F8B504460E4607680021FFF706FE0246A3
:10410000C0B9002508E00135B54213D00121204691
:10411000FFF7F6FE024668B9E1693846FFF72EFB65
:10412000024638B9236A1B78E52BECD0002BEAD085
:104130000025EBE7042A01D01046F8BD0722FBE773
:1041400070B5044606680121FFF7D2FF054608B1A5
:10415000284670BDE1693046FFF710FB0546002890
:10416000F6D120220021206AFFF7F2F80B2204F199
:104170002401206AFFF7E0F80123F370E8E700006C
:1041800070B50446FFF7D1FA054648B92378032BEA
:1041900008D0002211466078FFF7A4F800B101258D
:1041A000284670BD2379012BF3D104F130064FF47A
:1041B000007200213046FFF7CBF84AF6552104F291
:1041C0002E20FFF7ABF80F493046FFF7ABF80E494A
:1041D00004F50570FFF7A6F8216904F50670FFF7EE
:1041E000A1F8E16804F50770FFF79CF8E269013275
:1041F000E262012331466078FFF768F800232371FB
:10420000C7E700BF525261417272416170B584B01C
:10421000019000911646039103A8FFF739FA041E96
:104220001CDB104B53F8245025B12846FFF768F9E2
:1042300000232B70019B0BB100221A70019B094ACD
:1042400042F8243063B1012E02D0002004B070BDCA
:10425000002201A96846FFF7E9FAF7E70B20F5E726
:104260000020F3E7440100202DE9F04391B00191D3
:10427000002800F00A811546064602F03F073A463C
:1042800003A901A8FFF7D2FA044630B10CB100230C
:104290003360204611B0BDE8F083039B049301997D
:1042A00004A8FFF7DEFE044660B99DF93F30002BFD
:1042B00050DB37F0010314BF0121002104A8FFF7F0
:1042C00063F8044615F01C0F5AD0002C4ED0042C75
:1042D00042D047F00807002C61D117F0080F5ED0DC
:1042E000FCF7B2FA054601460C980E30FFF71AF8B3
:1042F00029460C981630FFF715F80C9B2022DA722D
:10430000DDF80C80DDF8309049464046FFF733F980
:104310000546002249464046FFF740F900210C9827
:104320001C30FEF7FFFF039B0122DA70BDB3039B35
:10433000D3F82C800022294604A8FFF7A2FD0446EA
:1043400068BB41460398FFF719FA0446013D039BF9
:10435000DD6024E00624B5E7FFF750F808B9122421
:10436000B7E704A8FFF7ECFE0446B2E79DF8163065
:1043700013F0110F12D115F0040FACD008240EE089
:104380006CB99DF8163013F0100F4CD115F0020FD8
:1043900005D013F0010F02D0072416E00724A4B9BA
:1043A00017F0080F01D047F04007039BDB6A7362E8
:1043B0000C9BB36237F0010314BF0121002104A854
:1043C000FFF72CF8306100285DD0002C7FF45EAF41
:1043D000039DDDF8308041462846FFF7CCF8B060F9
:1043E00008F11C00FEF78FFFF0600021F1623560DC
:1043F000EB88B380377571753162B16106F13008B1
:104400004FF400724046FEF7A3FF17F0200F3FF471
:104410003DAFF568002D3FF439AFB561039B5F896F
:104420007F02B16805E00424CFE7B1F1FF3F0BD074
:10443000ED1B5CB9BD4209D93046FFF7FEFB0146D2
:104440000128F2D80224F0E70124F1E7F161002C01
:104450007FF41CAFC5F30803002B3FF417AF039F95
:104460003846FFF76BF808B9022410E700EB552235
:104470003262012341467878FEF71CFF00283FF4A2
:1044800005AF012403E7022400E7092401E72DE931
:10449000F04F85B004460E46174698460023C8F8EC
:1044A0000030019003A9FFF71DF90090002840F0AB
:1044B000AE80637D0093002B40F0A980237D13F034
:1044C000010F00F0C380E568A369ED1ABD4262D315
:1044D0003D4660E0E36A1BB12046FFF73BF86AE027
:1044E000E1690198FFF7A9FB65E04FF0020A84F843
:1044F00015A0CDF800A08AE04FF0010A84F815A0BD
:10450000CDF800A083E04FF0020A84F815A0CDF8A2
:1045100000A07CE094F91430002B02DB4FEA4A271C
:104520002FE0206AA0EB09005045F7D24FF400724B
:1045300004F1300106EB4020FEF7FEFEEEE7226AB2
:104540004A450DD094F91430002B64DB01234A4610
:1045500004F1300103984078FEF7ACFE00286ED1DC
:10456000C4F82090A369C3F30803C3F50077BD42E4
:1045700000D22F4604F130013A4619443046FEF786
:10458000DBFE3E44A3693B44A361D8F800303B44C2
:10459000C8F80030ED1B002D39D0A169C1F3080324
:1045A000002BDFD1039B5F89013F17EA512708D118
:1045B00000298FD1A068012897D9B0F1FF3F9BD087
:1045C000E061DDF80CB0E1695846FEF7B7FF8146BF
:1045D000002898D0B9444FEA552AB5F5007FAED3EC
:1045E00007EB0A03BBF80A20934201D9A2EB070AA2
:1045F00053464A4631469BF80100FEF75BFE002811
:1046000088D04FF0010A84F815A0CDF800A00098DA
:1046100005B0BDE8F08F012304F130019BF80100E3
:10462000FEF754FE20B9237D03F07F0323758DE749
:104630004FF0010A84F815A0CDF800A0E7E74FF08D
:10464000010A84F815A0CDF800A0E0E70723009345
:10465000DDE770B582B0044601A9FFF743F870B9F1
:10466000237D13F0400F0AD013F0800F09D1FCF71F
:10467000EBF80546616A0198FFF780F878B102B05F
:1046800070BD0123226A04F1300101984078FEF7E1
:104690001DFE40BB237D03F07F032375E7E7A66A79
:1046A000F37A43F02003F372A26831462068FEF7E4
:1046B00075FFE16806F11C00FEF734FE294606F19D
:1046C0001600FEF72FFE002106F11200FEF726FE6F
:1046D000019B0122DA700198FFF752FD237D23F040
:1046E00040032375CBE70120C9E710B582B004462B
:1046F000FFF7AFFF08B102B010BD01A92046FEF7D9
:10470000F1FF0028F7D12069FEF7DAFE0028F2D188
:104710002060F0E730B585B0019100283DD0054616
:10472000002203A901A8FFF781F8044628B10CB1C3
:1047300000232B60204605B030BD039B2B60019900
:104740002846FFF78EFC044618BB95F92F30002B46
:1047500008DBAB7913F0100F1AD0296A0398FEF723
:104760000AFFA860039BDB88AB8000212846FFF787
:10477000CCFA044668B9AB6813B900232B6108E092
:1047800000212846FEF74AFE286110B91224CEE720
:104790000524042CCBD10524CAE70924CAE700006C
:1047A000104B5B7AE3B970B4044603F0FF000D4B85
:1047B0005D7AEDB200265E555D7A03EB85056C608F
:1047C0005C7A1C4422725A7A541CE4B25C72303215
:1047D0000A703A234B702F238B70CE7070BC7047D9
:1047E000012070476C01002008B50022FFF7D8FFB8
:1047F00008BD0000054B00221A62DA625A630138D4
:10480000034A52F82020DA60704700BF7407002086
:1048100074000020034B53F82120034B9A61186069
:10482000704700BFAC00002074070020034B53F812
:104830002120034BDA615860704700BF84000020DC
:104840007407002010B4064C54F82340054B5C62FA
:1048500099625A61044B18605DF8044B704700BFC1
:1048600098000020740700207801002010B5064C45
:104870004FF47A7221460548FDF76CFB0023A361D3
:10488000E3612362636210BD74070020000600200C
:1048900008B5FFF7EBFF4FF47A72034B1968034832
:1048A000FDF7A4FB08BD00BF780100200006002032
:1048B00008B5FFF7DBFF4FF47A72034B1968034822
:1048C000FDF7F8FB08BD00BF7801002000060020BE
:1048D00010B582B000248DF8074001210520FFF7B4
:1048E00099FF0123224619460DF10700FFF7AAFFA1
:1048F000FFF7DEFF9DF8070002B010BD08B50121EB
:104900000620FFF787FFFFF7B1FF08BD08B50121BB
:10491000AB20FFF77FFFFFF7A9FF08BD10B503200D
:10492000FFF768FF01219F20FFF774FF1C4C012354
:10493000002203212046FFF785FFFFF7B9FF21780A
:104940009D290ED09D2916D0C82903D1144B5B7820
:10495000602B1CD0124A937852781248FCF70EF95B
:1049600010BD6378602BEDD1A378182BEAD10E48E7
:10497000FCF704F9F4E70A4B5B78402BE4D1084BD1
:104980009B78112BE0D10948FCF7F8F8E8E7044BD5
:104990009B78172BDED10648FCF7F0F8E0E700BF64
:1049A000AC070020A86700083C67000860670008A3
:1049B0008467000838B505460C46FFF79FFF0121C4
:1049C0000220FFF727FF01212846FFF72FFF0123D1
:1049D00000224FF480712046FFF734FFFFF758FFA5
:1049E000FFF776FF10F0020FFAD138BD02B9704719
:1049F00070B505460C46164601210320FFF70AFF55
:104A000001212846FFF712FF0123002231462046EC
:104A1000FFF718FFFFF74CFF70BD000010B50A4C00
:104A20000440FFF76BFF01212020FFF7F3FE012177
:104A30002046FFF7FBFEFFF72BFFFFF749FF10F0C3
:104A4000020FFAD110BD00BF00F0FF002DE9F047C2
:104A5000C0B006460F46154600210091FC2201A871
:104A600000F042FFF4B2C4F58079C8460CB9FF2DBE
:104A700028D826F0FF0A224669465046FFF7B6FFBF
:104A8000A94518D92A4639460DEB040000F01EFF4F
:104A90006119A9EB050269447019FFF7A7FF694680
:104AA0005046FFF787FFA94524D2A4F5807425441A
:104AB0004E44002411E04A4639460DEB040000F054
:104AC00005FFECE74FF00008F3E708EB0401394479
:104AD000A019FFF76FFF04F5807425F0FF03A342D0
:104AE000F3D86B1E23F0FF0398441E44EC1A15F014
:104AF000FF0502D140B0BDE8F0872A4607EB080168
:104B0000684600F0E3FEC5F580720DEB0401301934
:104B1000FFF76CFF69463046FFF74CFFEAE70000FD
:104B200010B58AB01C48FCF729F80320FFF762FE95
:104B3000FFF7ECFEFFF7F2FE002401941D22214650
:104B400002A800F0D1FE202201A92046FFF74EFF67
:104B50001023202201A92046FCF71EF84FF09043B5
:104B60001B6913F4004F0FD00C48FCF707F80C4BEF
:104B700003221A604FF090431B6913F0010F08D015
:104B80006420FCF73BF9F5E700F074F8054800F005
:104B9000CFF80AB010BD00BFE06700080C6800083D
:104BA0007C0100202868000802682E4B9A4200D041
:104BB00070472D4B1B682D4A1268934204D02B4A34
:104BC00013602B4A00211160032BF1D8DFE803F0BA
:104BD000020E2632264B1B68002BE9D14FF0904283
:104BE000022191620133224A13607047204A136800
:104BF00001331360012B07D0022B0AD00A2BD7D127
:104C00001B4B00221A6070474FF0904302229A61BA
:104C100070474FF0904302229A627047144B1B6812
:104C2000002BC5D14FF09042022191610133104A0F
:104C3000136070470E4A136801331360012B07D0CD
:104C4000062B0AD00A2BB3D1094B00221A60AFE71A
:104C50004FF0904302229A6170474FF09043022236
:104C60009A627047002C01407C01002080010020E6
:104C70008401002010B520492048FFF7B5FDE0B9B8
:104C800000F018FC18B11E48FBF778FFFEE71D483E
:104C9000FBF774FF01221C491C48FFF7B7FA0446D2
:104CA00018B91B48FBF76AFF0AE0FCF71BF802463D
:104CB00021461848FBF762FF15E01748FBF75EFF37
:104CC00016491748FFF726FD044688B10D280BD07A
:104CD0001448FBF753FF2046FCF704F80246214630
:104CE0000C48FBF74BFF10BD0F48FBF747FFF2E7FF
:104CF0000E48FBF743FFF6E7980100200400002070
:104D0000346800087C680008AC680008D003002004
:104D1000F0680008B06800082069000844690008CD
:104D2000B00700206C690008486900089069000815
:104D30002DE9F047ADF5095D84B004464D4D284698
:104D4000FBF71CFF21464C48FBF718FF2846FBF7F2
:104D500015FF0DF581501030002540F8145C40F629
:104D6000FC76324629460DF5815000F0BDFD0795D1
:104D70003246294608A800F0B7FD012221460DF56C
:104D800000502030FFF770FA78B921463B48FBF716
:104D9000F5FE0DF500532033D3F80C80414638481A
:104DA000FBF7ECFE2C46A94608E021463548FBF708
:104DB000E5FE4FF0FF3856E004F5805444454DD2EF
:104DC0000DF500561C3633464FF480520DF58051D8
:104DD0001C310DF500502030FFF759FB2846FFF736
:104DE0001DFE32680DF580511C312846FFF72EFE5E
:104DF000326807A92846FFF7F9FDD6F800A0554408
:104E0000524607A90DF580501C3000F051FD0746B1
:104E10008144642000FB04F142F2107303FB04F3AD
:104E2000B3FBF8F2CDF814900497CDF80CA00295DE
:104E3000154BA3FB02C35B0900FB13230193B1FBDA
:104E4000F8F100914346224621131048FBF796FEE5
:104E50003368B3F5805F01D1002FADD00DF5005060
:104E60002030FFF742FC40460DF5095D04B0BDE877
:104E7000F08700BFFC690008406A00085C6A00080F
:104E8000C4690008E06900081F85EB51746A0008D6
:104E900010B50824FF2000F093FC013CE4B2FF2889
:104EA00001D1002CF6D110BD38B505464FF6FF7480
:104EB000FF2000F085FC013CA4B2A84201D0002CE8
:104EC000F6D10CB1002038BD0220FCE710B5FF2060
:104ED00000F076FC0446FF2000F072FC04F01F0492
:104EE0000B2C04D00D2C02D0052C02D0FF24204620
:104EF00010BD012000F03EFC002000F03BFCFF2034
:104F000000F05EFCFF28FAD1F1E7000070B584B034
:104F100004469DF82050304E306820603079207172
:104F200041F040018DF80810110E8DF80910C2F300
:104F300007418DF80A10C2F307218DF80B108DF888
:104F40000C2043F001038DF80D30002000F012FC1E
:104F50000622694602A800F01FFC052D07D8DFE8ED
:104F600005F003091F270627FFF792FF2070204650
:104F700004B070BDFFF78CFF2070FF2000F020FC14
:104F80006070012000F0F6FB0120FBF737FF0020E6
:104F900000F0F0FBFF2000F013FCFF28FAD1E6E759
:104FA000FFF776FF2070FF2000F00AFC6070DEE75C
:104FB000FFF76EFF2070FF2000F002FC6070FF2002
:104FC00000F0FEFBA070FF2000F0FAFBE070FF2075
:104FD00000F0F6FB2071CAE77061000830B589B0B7
:104FE00000238DF817309DF817300133DBB28DF8B0
:104FF00017300021009195230A4606A8FFF786FF87
:10500000012000F0B7FBFF2000F0DAFB9DF817301D
:10501000DBB2632B00F2A6809DF81840012CE2D190
:105020000523009387234FF4D57208210DEB01006F
:10503000FFF76CFF02980690012000F09BFBFF2019
:1050400000F0BEFB9DF8185015F0040F23D000248B
:105050000094FF232246372102A8FFF757FF0120C3
:1050600000F088FBFF2000F0ABFB0094FF232246FA
:10507000292102A8FFF74AFF02980690012000F0BC
:1050800079FBFF2000F09CFB9DF81830012BDED04F
:10509000384B1C8067E0012D65D100240094FF236C
:1050A0002246372102A8FFF731FF012000F062FB02
:1050B000FF2000F085FB0094FF234FF08042292160
:1050C00002A8FFF723FF02980690012000F052FB90
:1050D000FF2000F075FB9DF81830012BDDD013F098
:1050E000040F25D000220092FF23372102A8FFF7EA
:1050F0000DFF02980690012000F03CFBFF2000F01D
:105100005FFB9DF81830012B30D100220092FF2365
:10511000292102A8FFF7FAFE02980690012000F06C
:1051200029FBFF2000F04CFB9DF81830012BD9D053
:1051300003230093FF2300223A2102A8FFF7E6FE93
:1051400002980690012000F015FBFF2000F038FBCC
:105150009DF8184064B99DF81930C3F38013054ACF
:10516000138000E00124204609B030BD2C46FAE748
:105170002C46F8E78A01002070B588B00546002269
:105180000092FF23092102A8FFF7C0FE9DF8083016
:105190004BB10126012000F0EDFAFF2000F010FBDA
:1051A000304608B070BDFE20FFF77EFE064608B10F
:1051B0000126EFE700240F2C09D8FF2000F000FBA8
:1051C00008AB234403F8100C0134A4B2F3E7FF202A
:1051D00000F0F6FAFF2000F0F3FA9DF81020910994
:1051E0002B7861F3010362F387032B709DF8113074
:1051F0006B709DF81230AB709DF81330EB709DF81A
:1052000014309DF815100A0942EA0312AB8862F3C4
:105210000B03AB80C3F3072361F307136B719DF896
:105220001630D909AA7961F30002C3F3801161F342
:105230004102C3F3401161F38202C3F3001161F331
:10524000C302AA71584A1288002A40F08E80C3F324
:1052500081012A7A61F301022A729B0203F44063FE
:105260009DF8172043EA82039DF8182043EA921321
:10527000298963F38D012981C2F3C201AB7A61F3FD
:10528000020362F3C503AB729DF819305909EA7A3B
:1052900061F30202C3F3820161F3C502EA725B00AB
:1052A00003F006039DF81A2043EAD2132A7B63F326
:1052B00002022A739DF81A30C3F380112A7C61F32D
:1052C00000025B0003F07E039DF81B1043EAD1133C
:1052D00063F347022A746A7C61F306029DF81C306E
:1052E000D90961F3C7126A74C3F34111AA7C61F34F
:1052F0000102C3F3820161F38402AA749B0003F0EC
:105300000C039DF81D1043EA9113EA7C63F303023A
:10531000C1F34010134660F30413EB742B7D61F36B
:1053200004039DF81E20D10961F34513C2F38011D7
:1053300061F38613C2F3401161F3C7132B75C2F3F7
:1053400000116B7D61F30003C2F3810161F342033D
:1053500062F3C4036B759DF81F205108AB7D61F3A8
:10536000060362F3C713AB7514E79B0003F03C031D
:105370009DF8172043EA9213297A63F305012972F5
:10538000130403F47C139DF8182043EA02239DF8CC
:1053900019201343AA6863F39B12AA60C2F3076241
:1053A0006FF30412EA7285E78A01002070B588B0B5
:1053B000054600220092FF230A2102A8FFF7A6FD5E
:1053C0009DF808304BB10126012000F0D3F9FF20F1
:1053D00000F0F6F9304608B070BDFE20FFF764FD1E
:1053E000064608B10126EFE700240F2C08D8FF205D
:1053F00000F0E6F908AB234403F8100C0134F4E79D
:10540000FF2000F0DDF9FF2000F0DAF99DF8103000
:105410002B709DF811301B026B806B889BB29DF83E
:10542000122013436B809DF813301B066B606B6872
:105430009DF8142043EA02436B606B689DF81520C9
:1054400043EA02236B606B689DF8162013436B6080
:105450009DF817302B729DF818306B729DF819303B
:105460001B06EB60EB689DF81A2043EA0243EB60F1
:10547000EB689DF81B2043EA0223EB60EB689DF884
:105480001C201343EB602A7C9DF81D3042EA131266
:105490002A741B0203F470636B826B8A9BB29DF8C3
:1054A0001E2013436B829DF81F305B082B75012370
:1054B0006B7589E710B5012000F05CF90024092C18
:1054C00005D8FF2000F07CF90134E4B2F7E7034B84
:1054D00001221A70FFF782FD10BD00BF8801002075
:1054E00038B50446FFF748FE054604F11800FFF7FB
:1054F0005DFF2843C0B2144B1B88012B17D02389B2
:10550000C3F38B030133227B02F00702023203FA5A
:1055100002F24FF40073E3636379190901238B40AE
:10552000636303FB02F323635B0AA36338BD4FF499
:105530000073E3636363A368C3F395130133DB0470
:1055400023635B0AA363F1E78A0100202DE9F0479A
:1055500086B080460E46924600230093FF234FF408
:10556000007210210DEB0100FFF7D0FC012000F0CC
:1055700001F9FF2000F024F99DF81090B9F1000F17
:1055800010D000274FF00109012000F0F3F8FF20B0
:1055900000F016F917B1384600F082F9484606B017
:1055A000BDE8F0874FF4007000F072F9074600285C
:1055B0003AD04FF40072FF2100F096F9002426E063
:1055C000012100230093FF2301FB02F2112102A815
:1055D000FFF79CFC0298C0B248BBFE20FFF764FCBA
:1055E00040BB4FF4007208EB0401384600F0D4F8D9
:1055F00004F50074FF2000F0E3F8FF2000F0E0F86D
:10560000012000F0B7F8FF2000F0DAF8AA460AF10E
:10561000FF35BAF1000FB7D0A219084B1B88012B38
:10562000CED04FF40071CCE74FF00109ACE74FF05A
:105630000109A9E74FF00109A6E700BF8A01002090
:105640002DE9F04786B007460E46924600230093A8
:10565000FF234FF4007210210DEB0100FFF756FC01
:10566000012000F087F8FF2000F0AAF89DF81090C4
:10567000B9F1000F0BD04FF00109012000F07AF8CA
:10568000FF2000F09DF8484606B0BDE8F0874FF4D3
:10569000007000F0FDF8804600283DD000242EE088
:1056A000012100230093FF2301FB02F2182102A82D
:1056B000FFF72CFC0298C0B288BBFF2000F080F8F6
:1056C000FF2000F07DF8FE2000F07AF84FF4007221
:1056D0004146381900F060F804F50074FF2000F02E
:1056E0006FF8FF2000F06CF8FFF7F0FB05281FD1E2
:1056F000012000F03FF8FF2000F062F8AA460AF10E
:10570000FF35BAF1000F0CD0A2190B4B1B88012BEF
:10571000C6D04FF40071C4E74FF0010901E04FF02B
:105720000109B8F1000FA8D0404600F0B9F8A4E78D
:105730004FF00109F5E700BF8A01002000B585B0F0
:1057400002230093FF2300220D2102A8FFF7DEFBB6
:10575000012000F00FF8FF2000F032F89DF808302B
:1057600023B99DF8090010B1012000E0012005B027
:105770005DF804FB08B5012806D0002220214FF077
:105780009040FCF715FA08BD012220214FF090400F
:10579000FCF70EFAF7E7000000B583B013464FF4AC
:1057A0007A7200920A4601460448FCF77BFE10B963
:1057B00003B05DF804FBFBF7AFF8F9E74C060020F7
:1057C00000B587B08DF80F004FF47A730093012372
:1057D0000DF117020DF10F010548FCF763FE20B92A
:1057E0009DF8170007B05DF804FBFBF795F8F7E7A5
:1057F0004C060020DFF834D0002103E00C4B5B584E
:10580000435004310B480C4B42189A42F6D30B4AD2
:1058100002E0002342F8043B094B9A42F9D3FDF71A
:1058200005FD00F011F8FAF7E1FEFEE700A0002008
:10583000086B00080000002028010020280100203B
:1058400008080020FEE7000070B50D4D0D4C641BEC
:10585000A4100026A64209D10B4D0C4C00F07AFC96
:10586000641BA4100026A64205D170BD55F8043B68
:1058700098470136EEE755F8043B98470136F2E7C2
:10588000F86A0008F86A0008F86A0008FC6A00086C
:10589000024B0146186800F07FB800BFC00000202E
:1058A000024B0146186800F027B800BFC000002076
:1058B00030B501390024A24201D1002005E0035D8A
:1058C00001340D5DAB42F6D0581B30BD0A44914205
:1058D00000F1FF3300D1704710B511F8014B03F808
:1058E000014F9142F9D110BD02440346934200D1C9
:1058F000704703F8011BF9E737B5002948D051F884
:10590000043C0190002BA1F10404B8BFE41800F09E
:10591000CDF8204A01981368154633B963601460C6
:1059200003B0BDE8304000F0C7B8A3420BD92168EE
:105930006218934204BF1A685B68636004BF521820
:1059400022602C60ECE71A465B680BB1A342FAD9DF
:1059500011685518A5420BD1246821445418A3425C
:105960001160DDD11C685B68536021441160D7E78A
:1059700002D90C230360D3E7256861198B4204BF69
:1059800019685B68636004BF491921605460C7E708
:1059900003B030BD8C010020F8B5CD1C25F0030507
:1059A00008350C2D38BF0C25002D064601DBA94219
:1059B00003D90C2333600020F8BD00F077F82149AB
:1059C0000A6814469CB9204F3B6823B921463046EB
:1059D00000F03CF838602946304600F037F8431CA8
:1059E00023D10C233360304600F066F8E3E72368E8
:1059F0005B1B17D40B2B03D923601C44256004E0E8
:105A00006368A2420CBF0B605360304600F054F84C
:105A100004F10B00231D20F00700C21ACCD01B1A82
:105A2000A350C9E722466468CCE7C41C24F00304F1
:105A3000A042E3D0211A304600F008F80130DDD151
:105A4000CFE700BF8C0100209001002038B5064D43
:105A50000023044608462B6000F06EFB431C02D175
:105A60002B6803B1236038BDF807002000B59BB058
:105A7000009104916FF00041059102910549039155
:105A8000694600F07BF8009B00221A701BB05DF89D
:105A900004FB00BF0802FFFF13460A460146024806
:105AA0000068FFF7E3BF00BFC0000020014800F01E
:105AB000F9BA00BF00080020014800F0F4BA00BFA6
:105AC000000800202DE9F0478E689E4282460C4671
:105AD00090461F4638D88A8912F4906F32D02568D4
